{
  "abi": [
    {
      "inputs": [
        {
          "internalType": "uint256",
          "name": "_userPassword",
          "type": "uint256"
        }
      ],
      "stateMutability": "nonpayable",
      "type": "constructor"
    },
    {
      "inputs": [],
      "name": "PasswordAlreadyExisit",
      "type": "error"
    },
    {
      "inputs": [],
      "name": "getPassword",
      "outputs": [
        {
          "internalType": "uint256",
          "name": "",
          "type": "uint256"
        }
      ],
      "stateMutability": "view",
      "type": "function"
    },
    {
      "inputs": [
        {
          "internalType": "uint256",
          "name": "_userPassword",
          "type": "uint256"
        }
      ],
      "name": "updatePassWord",
      "outputs": [],
      "stateMutability": "nonpayable",
      "type": "function"
    }
  ],
  "bytecode": {
    "object": "0x608060405234801561001057600080fd5b5060405161015038038061015083398101604081905261002f91610037565b600055610050565b60006020828403121561004957600080fd5b5051919050565b60f28061005e6000396000f3fe6080604052348015600f57600080fd5b506004361060325760003560e01c8063cc8e2394146037578063f20d39e114604c575b600080fd5b60005460405190815260200160405180910390f35b605b605736600460a4565b605d565b005b600081604051602001607191815260200190565b60408051601f1981840301815291905280516020909101209050604051630884b7d560e21b815260040160405180910390fd5b60006020828403121560b557600080fd5b503591905056fea26469706673582212200f055cea06c482f56b742ef382955f6b36d13b447e4d6a73f5b5f5e7c0cdef1664736f6c63430008130033",
    "linkReferences": {}
  },
  "methodIdentifiers": {
    "getPassword()": "cc8e2394",
    "updatePassWord(uint256)": "f20d39e1"
  },
  "id": 0
}